:020000040800F2
:100000002817002045010008FF0E00084F0E0008C9
:10001000FD0E0008170200086D1100080000000026
:10002000000000000000000000000000B70F000802
:100030001902000800000000010F0008B90F0008B5
:100040005F0100085F0100085F0100085F01000810
:100050005F0100085F0100085F0100085F01000800
:100060005F0100085F0100085F0100085F010008F0
:100070005F0100085F0100085F0100085F010008E0
:100080005F0100085F0100085F0100085F010008D0
:100090005F0100085F0100085F0100085F010008C0
:1000A0005F0100085F0100085F0100085F010008B0
:1000B0005F0100085F0100085F0100085F010008A0
:1000C0005F0100085F0100085F0100085F01000890
:1000D0005F0100085F0100085F0100085F01000880
:1000E0005F0100085F0100085F0100085F01000870
:1000F0005F0100085F0100085F0100085F01000860
:100100005F0100085F0100085F0100085F0100084F
:100110005F0100085F0100085F0100085F0100083F
:100120005F0100085F0100085F0100085F0100082F
:10013000DFF80CD000F040F800480047E914000850
:10014000281700200648804706480047FEE7FEE7DC
:10015000FEE7FEE7FEE7FEE7FEE7FEE7FEE7FEE777
:100160000910000831010008D2B201E000F8012BAB
:10017000491EFBD270470022F6E710B513460A4627
:1001800004461946FFF7F0FF204610BD30B50B4678
:10019000014600202022012409E021FA02F59D42B7
:1001A00005D303FA02F5491B04FA02F52844151E8B
:1001B000A2F10102F1DC30BD064C074D06E0E0681B
:1001C00040F0010394E8070098471034AC42F6D39E
:1001D000FFF7B2FF681500088815000830B58C18C5
:1001E00010F8012B12F00F0301D110F8013B120996
:1001F00006D110F8012B03E010F8015B01F8015B58
:100200005B1EF9D101E001F8013B521EFBD1A14276
:10021000E6D3002030BDFEE77047704770B5044656
:1002200000F00AF90546601C02D004480078044436
:1002300000F002F9401BA042FAD370BD000000207C
:100240002DE9F84FDFF8C891002409F1040A0AF1FA
:10025000040B23460F270BF1040ED1E00125A54026
:1002600006EA0502AA4276D1DFF8A8C14E68A6EBDD
:100270000C0866452BD00DDC032E34D005DC36B3DC
:10028000012E19D0022E2FD11BE0112E16D0122EC6
:100290002AD119E0B8F5881F19D006DCB8F5803FDF
:1002A00015D0B8F5801F1FD111E0B8F5001F0ED092
:1002B000B8F5041F18D10AE0CB6815E0CB681B1D08
:1002C00012E0CB6808330FE0CB680C330CE08B688E
:1002D0002BB1012B4FF0080303D0456104E0042348
:1002E00002E0056100E00023FF2A01D8064601E094
:1002F00000F104064FEA840501D9A5F12005D6F8DE
:10030000008007FA05FC28EA0C0803FA05F548EA1C
:100310000508C6F800804D68ED0070D53E4DAE6909
:1003200046F00106AE61AD6924F0030605F0010553
:1003300000953A4D06EB050CDCF80850A607360F81
:1003400007FA06F825EA0805DFF8D480404503D10E
:100350004FF0000825E052E0DFF8C880404502D1A8
:100360004FF001081DE0DFF8C080404502D14FF09A
:10037000020816E0DFF8B480404502D14FF00308D0
:100380000FE0DFF8AC80404502D14FF0040808E0F0
:10039000DFF8A080404502D14FF0050801E04FF0A2
:1003A000060808FA06F848EA0508CCF808804D68FF
:1003B000D9F80060ED034D4601D5164300E09643A1
:1003C0002E604D68DAF80060AD03554601D516433E
:1003D00000E096432E604D68DBF80060ED025D465C
:1003E00001D5164300E096432E604D68DEF80060AC
:1003F000AD02754601D5164300E096432E60641C9D
:100400000A681646E2407FF429AFBDE8F88F000085
:1004100000040140000011100010024000000140E3
:1004200000080140000C0140001001400014014090
:1004300000180140001C014001488068704700001E
:1004400000000020024881680278114481607047F2
:1004500000000020074810B5016841F0100101605C
:10046000032000F067F8002000F006F800F024F800
:10047000002010BD0020024070B50D4D04464FF421
:100480007A712878B1FBF0F00A490968B1FBF0F005
:1004900000F002FC48B9102C07D200222146501E61
:1004A00000F028F800206C6070BD012070BD0000D5
:1004B000000000200C0000200C4808B5816941F0C4
:1004C00001018161816901F001010091C16941F07F
:1004D0008051C161C06900F08050009004484168BB
:1004E00021F0E06141F00071416008BD0010024060
:1004F00000000140F0B40E4B1B680C46C3F302230E
:10050000C3F10705042D00D90425191D072901D2BF
:10051000002300E0DB1E012606FA05F1491E2140FA
:1005200099409E40761E16403143F0BC00F0CEBE8E
:100530000CED00E0064900F0070208684FF6FF03E3
:10054000184040EA0220034A104308607047000048
:100550000CED00E00000FA052DE9F0470F4605001C
:1005600061D0434E306800F00700B84209D23068CD
:1005700020F0070038433060306800F00700B842D0
:1005800051D128683B4C810712D5400703D56068DC
:1005900040F4E06060602878000703D5606840F4AC
:1005A000605060606068A96820F0F00008436060F7
:1005B0002878C00728D06868012810D02168022850
:1005C00010D0890700292EDA616821F00301014368
:1005D0006160FFF731FF804641F288390DE0216804
:1005E0008903EFE78901EDE7FFF726FFA0EB08019C
:1005F000494502D90320BDE8F0876068696800F0CA
:100600000C00B0EB810FEFD1306800F00700B8426A
:100610000BD9306820F0070038433060306800F0B4
:100620000700B84201D00120E5E72878400705D54A
:100630006068E96820F4E06008436060287800079B
:1006400006D56068296920F4605040EAC100606006
:1006500000F038F86168084AC1F30311515CC840E2
:100660000649086006480068FFF706FF0020C2E759
:100670000020024000100240501500080C0000202D
:10068000040000200448054900684968044AC1F391
:100690000221515CC84070470C000020001002404D
:1006A000601500080448054900684968044AC1F318
:1006B000C221515CC84070470C000020001002406D
:1006C0006015000812A185B00FC98DE80F0014A0B5
:1006D000144A006804905168134801F00C03042B7D
:1006E00010D0082B0ED1C1F38343C9031DF80300BA
:1006F0000AD5516804AAC1F34041515C0A4A5043EB
:10070000B0FBF1F005B0704708494843FAE7000034
:1007100002030405060708090A0B0C0D0E0F101042
:10072000010200000010024000127A0000093D00A2
:100730002DE9F84F040070D02078C04DC00749D093
:100740006868C0F38100012807D06868C0F38100A1
:10075000022809D16868C00306D52868800339D506
:1007600060680028E7D035E06068B0F5803F0BD0C6
:1007700010B1B0F5A02F11D0286820F48030286087
:10078000286820F4802002E0286840F48030286047
:10079000606890B1FFF750FE06460AE0286840F412
:1007A00080202860F0E700BFFFF746FE801B64282A
:1007B00073D828688003F7D50CE0FFF73DFE0646A6
:1007C00005E000BFFFF738FE801B6428F0D82868DA
:1007D0008003F7D420789A4E80074FF001094FF03C
:1007E000000839D5686810F00C0F07D06868C0F3AE
:1007F0008100022809D16868C00306D428688007F0
:1008000014D52069012808D110E02069B0B1C6F8DC
:100810000090FFF711FE074605E00AE1FFF70CFE26
:10082000C01B0228C4D828688007F7D528686169EA
:1008300020F0F80040EAC10028600DE0C6F8008012
:10084000FFF7FAFD074604E0FFF7F6FDC01B02289C
:1008500023D828688007F7D4207800072CD579485A
:10086000A169D9B1C0F80090FFF7E6FD074604E0A2
:10087000FFF7E2FDC01B02280FD8686A8007F7D592
:1008800071484FF4FA510068B0FBF1F0009000BFDE
:100890000098411E0091FAD20EE080E0C0F800807E
:1008A000FFF7CAFD074604E0FFF7C6FDC01B02289C
:1008B00075D8686A8007F7D42078400760D5E86962
:1008C0000027C00008D4E86940F08050E861E8697A
:1008D000012700F0805000905C480168C90513D4DE
:1008E0000168834641F480710160FFF7A5FD8246EF
:1008F00006E000BFFFF7A0FDA0EB0A0064284ED879
:10090000DBF80000C005F5D5E06801280AD008B181
:10091000052813D0286A20F001002862286A20F0F8
:10092000040002E0286A40F001002862E06841F219
:10093000883B98B1FFF780FD82460BE0286A40F0C3
:1009400004002862EEE700BFFFF776FDA0EB0A0186
:1009500059455AD8286A8007F6D50CE0FFF76CFD98
:10096000824605E0FFF768FDA0EB0A0159454CD827
:10097000286A8007F6D41FB1E86920F08050E8614A
:10098000E06988B36968C1F38101022944D0022873
:10099000C6F8608004D0FFF74FFD044638E034E02D
:1009A000FFF74AFD074604E0FFF746FDC01B02289B
:1009B0002BD828688001F7D4206AB0F5803F05D194
:1009C0006868A16820F4003008436860D4E9080131
:1009D0000843696821F4741108436860C6F86090A0
:1009E000FFF72AFD044606E025E000BFFFF724FDDF
:1009F000001B022809D828688001F7D51BE000BF3A
:100A0000FFF71AFD001B022802D90320BDE8F88F6A
:100A100028688001F4D40EE00128F7D06868226AC3
:100A200000F48031914204D1616A00F47010884270
:100A300001D00120EAE70020E8E7000000100240B2
:100A400000004242800442420C000020007000403E
:100A500070B5040005D00025A56294F8510010B1CE
:100A600006E0012070BD84F85050204600F02EF8BA
:100A7000022084F851002068016821F040010160E3
:100A8000D4E901010843D4E9031211430843616921
:100A90000843218B01F400710843E1690843216A8E
:100AA0000843A16A084321680860A069042101EA9B
:100AB0001040216848602068C16921F40061C1616B
:100AC0006565012084F85100002070BD30B585B007
:100AD000002400940194029403940068144988420D
:100AE00023D11448816941F480518161816901F405
:100AF00080510491816941F00401816180690E4D4A
:100B000000F004000490A020009002200190032037
:100B1000039069462846FFF793FB4020CDE9000487
:100B2000694628460294FFF78BFB05B030BD0000F4
:100B30000030014000100240000801402DE9F84F4C
:100B4000044690F8500000271D46164689460128A5
:100B50000DD04FF0010B84F850B0FFF76DFC8046CC
:100B600094F85100BA46012804D002278EE00220F2
:100B7000BDE8F88FB9F1000F7DD0002E7BD00320A7
:100B800084F85100C4F854A0C4F83090A686E686D4
:100B9000C4F838A0A4F83CA0A4F83EA0C4F844A02F
:100BA000C4F840A0A068B0F5004F04D120680168E7
:100BB00041F48041016020680168490603D401685E
:100BC00041F040010160E068B0F5006F606803D05B
:100BD00030B3012E24D040E008B1012E1CD1206B8F
:100BE00021680088C86006E020688168890709D507
:100BF000216B0988C160206B801C2063E08E401E41
:100C0000E08609E0FFF718FCA0EB0800A84202D339
:100C1000681C01D031E07DB3E08E0028E4D11FE0F4
:100C2000206B21680078087306E0206881688907D6
:100C300009D5216B09780173206B401C2063E08E7D
:100C4000401EE08609E0FFF7F7FBA0EB0800A84292
:100C500002D3681C01D010E075B1E08E0028E4D109
:100C600042462946204600F04CF908B12020606534
:100C7000A06820B107E008E0FFE7032706E020684E
:100C8000C16880680090606D00B1012784F851B0A0
:100C900084F850A038466BE710B5401EB0F1807F55
:100CA00001D3012010BD4FF0E02460610F216017D7
:100CB00000F00CFB0020A06107202061002010BD87
:100CC00070B5040004D094F83900002510B106E096
:100CD000012070BD84F83850204600F023F824200D
:100CE00084F839002068C16821F40051C1602046B1
:100CF00000F0AEF92068016921F49041016120689B
:100D0000416921F02A0141612068C16841F4005124
:100D1000C160E563202084F8390084F83A0000209F
:100D200070BD000030B585B0002400940194029499
:100D3000039400681449884224D11448816941F41D
:100D400080418161816901F480410491816941F0B0
:100D50000401816180690E4D00F0040004904FF49D
:100D600000700090022001900320039069462846FD
:100D7000FFF766FA2815CDE9000469462846029473
:100D8000FFF75EFA05B030BD0038014000100240A8
:100D9000000801402DE9F843044690F839001F4649
:100DA00016460D46202850D1A5B19EB194F83800C2
:100DB00001284AD0012084F838004FF00008C4F818
:100DC0003C80212084F83900FFF736FBA684814659
:100DD000E68426E00120BDE8F883E08C401EE08434
:100DE000A0684B46B0F5805F4FF000024FF08001E5
:100DF0002046009703D000F087F9E8B90DE000F035
:100E000083F9C8B928882168C0F3080048602069C0
:100E100008B16D1C05E0AD1C03E0216815F8010B5D
:100E20004860E08C0028D8D14B4600224021204663
:100E3000009700F069F908B10320CCE7202084F87E
:100E4000390084F838800020C5E70220C3E7FEE7B8
:100E5000094808B5816941F010018161816901F09B
:100E600010010091816941F004018161806900F005
:100E70000400009008BD000000100240104810B5AA
:100E80000E4901604FF48271416000218160C160B0
:100E90004FF400720161C0E905121822C0E9072170
:100EA000416281620A21C162FFF7D2FD002803D0AE
:100EB000BDE81040FFF7B1B910BD0000003001409F
:100EC000801200200C4810B50A4901604FF4E1314E
:100ED0004160002181600C22C160C0E9041281617F
:100EE000C161FFF7EDFE002803D0BDE81040FFF719
:100EF00094B910BD00380140D8120020FEE77047B9
:100F0000704738B50B46009204460022802100F05D
:100F100008F8002804D0606D40F0200060650320D0
:100F200038BD2DE9F0411D4617460E460446DDF852
:100F3000188008E0681C06D0FFF77EFAA0EB0800D6
:100F4000A8420BD255B12068806836EA000030D044
:100F50000020B842EED10020BDE8F0812068416851
:100F600021F0E00141606068B0F5827F0BD1A0689C
:100F7000B0F5004F02D0B0F5806F04D12068016851
:100F800021F040010160A06AB0F5005F09D120683E
:100F9000016821F4005101602068016841F40051AA
:100FA0000160012084F85100002084F850000320E3
:100FB000D2E70120CDE77047FFF744BA30B58FB0D4
:100FC00028216846FFF7D7F814210AA8FFF7D3F8BD
:100FD0000224012004900094102005900025400474
:100FE000CDE9085007946846FFF7A2FB0AA90F2035
:100FF00081E831006002CDE90D0501210AA8FFF763
:10100000ABFA0FB030BD00000D48016841F001019E
:10101000016041680B4A1140416001680A4A114071
:101020000160016821F480210160416821F4FE0122
:1010300041604FF41F0181600449C003086070479C
:10104000001002400000FFF8FFFFF6FE08ED00E090
:101050002DE9F041044600680169E26821F440513D
:10106000114301612169A06808436169084321684F
:10107000CA6841F20C639A430243CA60206841691E
:10108000A26921F44071114341611E492068642521
:101090003226884202D1FFF705FB01E0FFF7F2FAA2
:1010A00000EBC00101EB001160686FF018078000D1
:1010B000B1FBF0F2B2FBF5F2B1FBF0F37A4303EBD4
:1010C0008202B1FBF0F306EB0212B2FBF5F2B3FBC6
:1010D000F5F302F0F00202EB0312B1FBF0F3B1FB07
:1010E000F0F0B0FBF5F0784303EB800006EB001066
:1010F000B0FBF5F0216800F00F0010448860BDE8F7
:10110000F0810000003801402DE9F0419846174673
:101110000E460446069D1DE0681C1BD02DB1FFF74E
:101120008BF9A0EB0800A84214D92068C16821F40B
:10113000D071C1602068416921F001014161202026
:1011400084F8390084F83A00002084F8380003203D
:10115000BDE8F0812068006836EA000004D0002075
:10116000B842D9D00020F3E70120F9E7FEE70000FC
:101170002DE9F041002000F071F8184C20600020AB
:1011800000F06CF86060002000F068F8A06014A027
:1011900000F08CF80021164E03224FF4837C0020CF
:1011A00001EBC10313EB060590FBF2F390FBF2F3A6
:1011B00090FBF2F702FB130302FB170754F82330EE
:1011C000C7F10207FF00FB402B54401C0928EBDB52
:1011D000491C6145E3DBBDE8F081000018130020E5
:1011E0000D0A77733238313220696E69740000005D
:1011F00010000020F0B505461E461746084600F0D0
:101200002DF8144C2060384600F028F86060304615
:1012100000F024F805EBC50300210F4DA06008463F
:1012200003222B4490FBF2F502FB150515B908B11A
:10123000491CC9B290FBF2F502FB1505C5F1020588
:10124000EE0054F82150F5401D54401C0928E9DBFC
:10125000F0BD0000181300201000002070B50446F7
:10126000002006250146042324FA01F2D20701EBEF
:10127000410602D005FA06F201E003FA06F2104335
:10128000491C0829F0DB70BD10B500F0E9F8BDE895
:1012900010404FF6FF7340F6361202490248FFF73E
:1012A0004DBC000046090020801200200FB4054B01
:1012B00010B503A9044A029800F028F810BC5DF8A4
:1012C00014FB0000D11400087C1200200907090E4D
:1012D000002804DB00F1E02080F80014704700F0E3
:1012E0000F0000F1E02080F8141D704702E008C8EC
:1012F000121F08C1002AFAD170477047002001E090
:1013000001C1121F002AFBD1704700002DE9FF4FD9
:1013100089B09B460446002506E025280BD05A4696
:101320000B999047641C6D1C20780028F5D10DB0F6
:101330002846BDE8F08F0027B8460122474900E063
:10134000074314F8013F203B02FA03F00842F7D1AB
:1013500020782E2819D114F8010F47F004072A2805
:101360000ED06FF02F022078A0F1300109290CD89F
:1013700008EB880102EB410100EB0108641CF2E775
:101380000A98641C50F8048B0A9020780028CED06C
:10139000642808D0692806D075281ED05A460B99B3
:1013A00090476D1C58E00A994FF00A0901C90A914B
:1013B000002802DA40422D2102E0390504D52B2114
:1013C0008DF82010012103E0F90704D02021F7E770
:1013D0008A4608AE0DE00021FAE70A994FF00A09A3
:1013E00001C90A91F7E74946FEF7D0FE303106F809
:1013F000011D0028F7D1ADEB060000F120097807A8
:1014000001D44FF00108C84502DDA8EB090000E057
:1014100000208046002706E008A85A46C05D0B99C8
:1014200090476D1C7F1C5745F6DB04E030205A4680
:101430000B9990476D1CB8F10001A8F10108F5DC8B
:1014400005E016F8010B5A460B9990476D1CB9F14F
:101450000001A9F10109F4DC641C65E70928010019
:10146000F0B5002318491A46002003EBC3042518E1
:10147000401C4A550928FADB5B1C032BF4DB134D97
:1014800003234FF4817E002003EBC3067419271851
:1014900006EB000C17F81B7C401C01F80C700928A7
:1014A000F5DB5B1C7345EEDD40F20310C51C002329
:1014B00000EBC004E6185B1C8A55092BFADB401CC4
:1014C000A842F4DBF0BD0000460900201000002017
:1014D00013B54FF6FF73012269460248FFF75AFC25
:1014E00000981CBDD8120020FEF7B4FFFFF766FD80
:1014F000FFF7AEFCFFF7C2FCFFF7E4FCFFF738FE96
:10150000FFF7C2FE0E4D0024E11704EB114004EB7F
:10151000116211122246D3B20014CAB2C1B2012024
:10152000FFF768FEFFF7B0FE214606A0FFF7BEFEFC
:101530000120FEF773FE641CAC42E5DBE3E700002C
:101540009F9719000D0A2D2D25642D2D00000000F8
:101550000000000000000000010203040607080963
:1015600000000000010203048815000800000020AC
:1015700080120000DC010008BC1500088012002069
:10158000A8040000FC1200084201921005FF24F498
:1015900000FF01FF01FF01FF01FF01FF01FF01FF4C
:1015A00001FF014802FFFF01FF01FF01FF01FF01F1
:0C15B000FF01FF01FF01FF014C000000E3
:0400000508000131BD
:00000001FF
